{
  "contractName": "MLModelMarketplace",
  "abi": [
    {
      "anonymous": false,
      "inputs": [
        {
          "indexed": false,
          "internalType": "uint256",
          "name": "id",
          "type": "uint256"
        },
        {
          "indexed": false,
          "internalType": "address",
          "name": "owner",
          "type": "address"
        },
        {
          "indexed": false,
          "internalType": "string",
          "name": "name",
          "type": "string"
        },
        {
          "indexed": false,
          "internalType": "uint256",
          "name": "price",
          "type": "uint256"
        }
      ],
      "name": "ModelListed",
      "type": "event"
    },
    {
      "anonymous": false,
      "inputs": [
        {
          "indexed": false,
          "internalType": "uint256",
          "name": "id",
          "type": "uint256"
        },
        {
          "indexed": false,
          "internalType": "address",
          "name": "buyer",
          "type": "address"
        }
      ],
      "name": "ModelPurchased",
      "type": "event"
    },
    {
      "inputs": [],
      "name": "modelCount",
      "outputs": [
        {
          "internalType": "uint256",
          "name": "",
          "type": "uint256"
        }
      ],
      "stateMutability": "view",
      "type": "function"
    },
    {
      "inputs": [
        {
          "internalType": "uint256",
          "name": "",
          "type": "uint256"
        }
      ],
      "name": "models",
      "outputs": [
        {
          "internalType": "uint256",
          "name": "id",
          "type": "uint256"
        },
        {
          "internalType": "address payable",
          "name": "owner",
          "type": "address"
        },
        {
          "internalType": "string",
          "name": "ipfsHash",
          "type": "string"
        },
        {
          "internalType": "string",
          "name": "name",
          "type": "string"
        },
        {
          "internalType": "string",
          "name": "description",
          "type": "string"
        },
        {
          "internalType": "uint256",
          "name": "price",
          "type": "uint256"
        }
      ],
      "stateMutability": "view",
      "type": "function"
    },
    {
      "inputs": [
        {
          "internalType": "address",
          "name": "",
          "type": "address"
        },
        {
          "internalType": "uint256",
          "name": "",
          "type": "uint256"
        }
      ],
      "name": "purchases",
      "outputs": [
        {
          "internalType": "bool",
          "name": "",
          "type": "bool"
        }
      ],
      "stateMutability": "view",
      "type": "function"
    },
    {
      "inputs": [
        {
          "internalType": "string",
          "name": "_ipfsHash",
          "type": "string"
        },
        {
          "internalType": "string",
          "name": "_name",
          "type": "string"
        },
        {
          "internalType": "string",
          "name": "_description",
          "type": "string"
        },
        {
          "internalType": "uint256",
          "name": "_price",
          "type": "uint256"
        }
      ],
      "name": "listModel",
      "outputs": [],
      "stateMutability": "nonpayable",
      "type": "function"
    },
    {
      "inputs": [
        {
          "internalType": "uint256",
          "name": "_id",
          "type": "uint256"
        }
      ],
      "name": "buyModel",
      "outputs": [],
      "stateMutability": "payable",
      "type": "function"
    },
    {
      "inputs": [
        {
          "internalType": "address",
          "name": "_buyer",
          "type": "address"
        },
        {
          "internalType": "uint256",
          "name": "_id",
          "type": "uint256"
        }
      ],
      "name": "hasPurchased",
      "outputs": [
        {
          "internalType": "bool",
          "name": "",
          "type": "bool"
        }
      ],
      "stateMutability": "view",
      "type": "function"
    }
  ],
  "bytecode": "0x60806040525f8055348015610012575f80fd5b5061149d806100205f395ff3fe608060405260043610610054575f3560e01c8063119231321461005857806352d3f8491461009457806368243163146100d05780636a030ca9146100f8578063bf6a6fc114610139578063c6a645fe14610155575b5f80fd5b348015610063575f80fd5b5061007e60048036038101906100799190610adc565b61017f565b60405161008b9190610b34565b60405180910390f35b34801561009f575f80fd5b506100ba60048036038101906100b59190610adc565b6101e1565b6040516100c79190610b34565b60405180910390f35b3480156100db575f80fd5b506100f660048036038101906100f19190610c89565b61020b565b005b348015610103575f80fd5b5061011e60048036038101906101199190610d41565b61039a565b60405161013096959493929190610e15565b60405180910390f35b610153600480360381019061014e9190610d41565b610583565b005b348015610160575f80fd5b50610169610a39565b6040516101769190610e89565b60405180910390f35b5f60025f8473ffffffffffffffffffffffffffffffffffffffff1673ffffffffffffffffffffffffffffffffffffffff1681526020019081526020015f205f8381526020019081526020015f205f9054906101000a900460ff16905092915050565b6002602052815f5260405f20602052805f5260405f205f915091509054906101000a900460ff1681565b5f811161024d576040517f08c379a000000000000000000000000000000000000000000000000000000000815260040161024490610eec565b60405180910390fd5b5f8081548092919061025e90610f37565b91905055506040518060c001604052805f5481526020013373ffffffffffffffffffffffffffffffffffffffff1681526020018581526020018481526020018381526020018281525060015f805481526020019081526020015f205f820151815f01556020820151816001015f6101000a81548173ffffffffffffffffffffffffffffffffffffffff021916908373ffffffffffffffffffffffffffffffffffffffff160217905550604082015181600201908161031c9190611178565b5060608201518160030190816103329190611178565b5060808201518160040190816103489190611178565b5060a082015181600501559050507fbd1746c1b7133495a001a0594ff57192c7f2b1c291438a143db36bcbe31ef2975f5433858460405161038c9493929190611256565b60405180910390a150505050565b6001602052805f5260405f205f91509050805f015490806001015f9054906101000a900473ffffffffffffffffffffffffffffffffffffffff16908060020180546103e490610fab565b80601f016020809104026020016040519081016040528092919081815260200182805461041090610fab565b801561045b5780601f106104325761010080835404028352916020019161045b565b820191905f5260205f20905b81548152906001019060200180831161043e57829003601f168201915b50505050509080600301805461047090610fab565b80601f016020809104026020016040519081016040528092919081815260200182805461049c90610fab565b80156104e75780601f106104be576101008083540402835291602001916104e7565b820191905f5260205f20905b8154815290600101906020018083116104ca57829003601f168201915b5050505050908060040180546104fc90610fab565b80601f016020809104026020016040519081016040528092919081815260200182805461052890610fab565b80156105735780601f1061054a57610100808354040283529160200191610573565b820191905f5260205f20905b81548152906001019060200180831161055657829003601f168201915b5050505050908060050154905086565b5f60015f8381526020019081526020015f206040518060c00160405290815f8201548152602001600182015f9054906101000a900473ffffffffffffffffffffffffffffffffffffffff1673ffffffffffffffffffffffffffffffffffffffff1673ffffffffffffffffffffffffffffffffffffffff16815260200160028201805461060e90610fab565b80601f016020809104026020016040519081016040528092919081815260200182805461063a90610fab565b80156106855780601f1061065c57610100808354040283529160200191610685565b820191905f5260205f20905b81548152906001019060200180831161066857829003601f168201915b5050505050815260200160038201805461069e90610fab565b80601f01602080910402602001604051908101604052809291908181526020018280546106ca90610fab565b80156107155780601f106106ec57610100808354040283529160200191610715565b820191905f5260205f20905b8154815290600101906020018083116106f857829003601f168201915b5050505050815260200160048201805461072e90610fab565b80601f016020809104026020016040519081016040528092919081815260200182805461075a90610fab565b80156107a55780601f1061077c576101008083540402835291602001916107a5565b820191905f5260205f20905b81548152906001019060200180831161078857829003601f168201915b5050505050815260200160058201548152505090505f815f0151116107ff576040517f08c379a00000000000000000000000000000000000000000000000000000000081526004016107f6906112ea565b60405180910390fd5b8060a001513414610845576040517f08c379a000000000000000000000000000000000000000000000000000000000815260040161083c90611352565b60405180910390fd5b806020015173ffffffffffffffffffffffffffffffffffffffff163373ffffffffffffffffffffffffffffffffffffffff16036108b7576040517f08c379a00000000000000000000000000000000000000000000000000000000081526004016108ae906113ba565b60405180910390fd5b60025f3373ffffffffffffffffffffffffffffffffffffffff1673ffffffffffffffffffffffffffffffffffffffff1681526020019081526020015f205f8381526020019081526020015f205f9054906101000a900460ff1615610950576040517f08c379a000000000000000000000000000000000000000000000000000000000815260040161094790611422565b60405180910390fd5b806020015173ffffffffffffffffffffffffffffffffffffffff166108fc3490811502906040515f60405180830381858888f19350505050158015610997573d5f803e3d5ffd5b50600160025f3373ffffffffffffffffffffffffffffffffffffffff1673ffffffffffffffffffffffffffffffffffffffff1681526020019081526020015f205f8481526020019081526020015f205f6101000a81548160ff0219169083151502179055507fc8581808129c51c0416692a5ea1b58e080ae8f21e384eefe2f2dc85d231d12ba8233604051610a2d929190611440565b60405180910390a15050565b5f5481565b5f604051905090565b5f80fd5b5f80fd5b5f73ffffffffffffffffffffffffffffffffffffffff82169050919050565b5f610a7882610a4f565b9050919050565b610a8881610a6e565b8114610a92575f80fd5b50565b5f81359050610aa381610a7f565b92915050565b5f819050919050565b610abb81610aa9565b8114610ac5575f80fd5b50565b5f81359050610ad681610ab2565b92915050565b5f8060408385031215610af257610af1610a47565b5b5f610aff85828601610a95565b9250506020610b1085828601610ac8565b9150509250929050565b5f8115159050919050565b610b2e81610b1a565b82525050565b5f602082019050610b475f830184610b25565b92915050565b5f80fd5b5f80fd5b5f601f19601f8301169050919050565b7f4e487b71000000000000000000000000000000000000000000000000000000005f52604160045260245ffd5b610b9b82610b55565b810181811067ffffffffffffffff82111715610bba57610bb9610b65565b5b80604052505050565b5f610bcc610a3e565b9050610bd88282610b92565b919050565b5f67ffffffffffffffff821115610bf757610bf6610b65565b5b610c0082610b55565b9050602081019050919050565b828183375f83830152505050565b5f610c2d610c2884610bdd565b610bc3565b905082815260208101848484011115610c4957610c48610b51565b5b610c54848285610c0d565b509392505050565b5f82601f830112610c7057610c6f610b4d565b5b8135610c80848260208601610c1b565b91505092915050565b5f805f8060808587031215610ca157610ca0610a47565b5b5f85013567ffffffffffffffff811115610cbe57610cbd610a4b565b5b610cca87828801610c5c565b945050602085013567ffffffffffffffff811115610ceb57610cea610a4b565b5b610cf787828801610c5c565b935050604085013567ffffffffffffffff811115610d1857610d17610a4b565b5b610d2487828801610c5c565b9250506060610d3587828801610ac8565b91505092959194509250565b5f60208284031215610d5657610d55610a47565b5b5f610d6384828501610ac8565b91505092915050565b610d7581610aa9565b82525050565b5f610d8582610a4f565b9050919050565b610d9581610d7b565b82525050565b5f81519050919050565b5f82825260208201905092915050565b5f5b83811015610dd2578082015181840152602081019050610db7565b5f8484015250505050565b5f610de782610d9b565b610df18185610da5565b9350610e01818560208601610db5565b610e0a81610b55565b840191505092915050565b5f60c082019050610e285f830189610d6c565b610e356020830188610d8c565b8181036040830152610e478187610ddd565b90508181036060830152610e5b8186610ddd565b90508181036080830152610e6f8185610ddd565b9050610e7e60a0830184610d6c565b979650505050505050565b5f602082019050610e9c5f830184610d6c565b92915050565b7f5072696365206d757374206265203e20300000000000000000000000000000005f82015250565b5f610ed6601183610da5565b9150610ee182610ea2565b602082019050919050565b5f6020820190508181035f830152610f0381610eca565b9050919050565b7f4e487b71000000000000000000000000000000000000000000000000000000005f52601160045260245ffd5b5f610f4182610aa9565b91507fffffffffffffffffffffffffffffffffffffffffffffffffffffffffffffffff8203610f7357610f72610f0a565b5b600182019050919050565b7f4e487b71000000000000000000000000000000000000000000000000000000005f52602260045260245ffd5b5f6002820490506001821680610fc257607f821691505b602082108103610fd557610fd4610f7e565b5b50919050565b5f819050815f5260205f209050919050565b5f6020601f8301049050919050565b5f82821b905092915050565b5f600883026110377fffffffffffffffffffffffffffffffffffffffffffffffffffffffffffffffff82610ffc565b6110418683610ffc565b95508019841693508086168417925050509392505050565b5f819050919050565b5f61107c61107761107284610aa9565b611059565b610aa9565b9050919050565b5f819050919050565b61109583611062565b6110a96110a182611083565b848454611008565b825550505050565b5f90565b6110bd6110b1565b6110c881848461108c565b505050565b5b818110156110eb576110e05f826110b5565b6001810190506110ce565b5050565b601f8211156111305761110181610fdb565b61110a84610fed565b81016020851015611119578190505b61112d61112585610fed565b8301826110cd565b50505b505050565b5f82821c905092915050565b5f6111505f1984600802611135565b1980831691505092915050565b5f6111688383611141565b9150826002028217905092915050565b61118182610d9b565b67ffffffffffffffff81111561119a57611199610b65565b5b6111a48254610fab565b6111af8282856110ef565b5f60209050601f8311600181146111e0575f84156111ce578287015190505b6111d8858261115d565b86555061123f565b601f1984166111ee86610fdb565b5f5b82811015611215578489015182556001820191506020850194506020810190506111f0565b86831015611232578489015161122e601f891682611141565b8355505b6001600288020188555050505b505050505050565b61125081610a6e565b82525050565b5f6080820190506112695f830187610d6c565b6112766020830186611247565b81810360408301526112888185610ddd565b90506112976060830184610d6c565b95945050505050565b7f4d6f64656c20646f6573206e6f742065786973740000000000000000000000005f82015250565b5f6112d4601483610da5565b91506112df826112a0565b602082019050919050565b5f6020820190508181035f830152611301816112c8565b9050919050565b7f496e636f7272656374207061796d656e740000000000000000000000000000005f82015250565b5f61133c601183610da5565b915061134782611308565b602082019050919050565b5f6020820190508181035f83015261136981611330565b9050919050565b7f4f776e65722063616e6e6f7420627579206f776e206d6f64656c0000000000005f82015250565b5f6113a4601a83610da5565b91506113af82611370565b602082019050919050565b5f6020820190508181035f8301526113d181611398565b9050919050565b7f4d6f64656c20616c7265616479207075726368617365640000000000000000005f82015250565b5f61140c601783610da5565b9150611417826113d8565b602082019050919050565b5f6020820190508181035f83015261143981611400565b9050919050565b5f6040820190506114535f830185610d6c565b6114606020830184611247565b939250505056fea2646970667358221220be54d70f1152e047312930ec3b97085aa4803806f66fe3461ee574d9857de85064736f6c63430008150033",
  "immutableReferences": {},
  "source": "// SPDX-License-Identifier: MIT\npragma solidity ^0.8.0;\n\ncontract MLModelMarketplace {\n    uint public modelCount = 0;\n\n    struct Model {\n        uint id;\n        address payable owner;\n        string ipfsHash;\n        string name;\n        string description;\n        uint price; // in wei\n    }\n\n    mapping(uint => Model) public models;\n    mapping(address => mapping(uint => bool)) public purchases;\n\n    event ModelListed(uint id, address owner, string name, uint price);\n    event ModelPurchased(uint id, address buyer);\n\n    // List a new model\n    function listModel(string memory _ipfsHash, string memory _name, string memory _description, uint _price) public {\n        require(_price > 0, \"Price must be > 0\");\n        modelCount++;\n        models[modelCount] = Model(modelCount, payable(msg.sender), _ipfsHash, _name, _description, _price);\n        emit ModelListed(modelCount, msg.sender, _name, _price);\n    }\n\n    // Buy a model\n    function buyModel(uint _id) public payable {\n        Model memory _model = models[_id];\n        require(_model.id > 0, \"Model does not exist\");\n        require(msg.value == _model.price, \"Incorrect payment\");\n        require(msg.sender != _model.owner, \"Owner cannot buy own model\");\n        require(!purchases[msg.sender][_id], \"Model already purchased\");\n\n        // Transfer payment to the model owner\n        _model.owner.transfer(msg.value);\n\n        // Mark as purchased for the buyer\n        purchases[msg.sender][_id] = true;\n\n        emit ModelPurchased(_id, msg.sender);\n    }\n\n    // Check if a user owns a model\n    function hasPurchased(address _buyer, uint _id) public view returns (bool) {\n        return purchases[_buyer][_id];\n    }\n}\n",
  "sourcePath": "/Users/sarathivelmurugan/Desktop/Blockchain-ML-Marketplace/ml-marketplace/contracts/blockchainSmart.sol",
  "compiler": {
    "name": "solc",
    "version": "0.8.21+commit.d9974bed.Emscripten.clang"
  },
  "schemaVersion": "3.4.16",
  "updatedAt": "2025-08-09T23:29:51.120Z",
  "devdoc": {
    "kind": "dev",
    "methods": {},
    "version": 1
  },
  "userdoc": {
    "kind": "user",
    "methods": {},
    "version": 1
  }
}